{"contracts/fee/FeeManager.sol":{"FeeManager":{"abi":[{"inputs":[{"internalType":"address","name":"_feeTreasuryAddress","type":"address"},{"internalType":"address","name":"_feeContractAddress","type":"address"},{"internalType":"uint256","name":"_feeERC721CreateAmount","type":"uint256"},{"internalType":"uint256","name":"_feeERC1155CreateAmount","type":"uint256"},{"internalType":"uint256","name":"_feeERC721MintAmount","type":"uint256"},{"internalType":"uint256","name":"_feeERC1155MintAmount","type":"uint256"},{"internalType":"uint256","name":"_feeERC721CreateAmountETH","type":"uint256"},{"internalType":"uint256","name":"_feeERC1155CreateAmountETH","type":"uint256"},{"internalType":"uint256","name":"_feeERC721MintAmountETH","type":"uint256"},{"internalType":"uint256","name":"_feeERC1155MintAmountETH","type":"uint256"}],"stateMutability":"nonpayable","type":"constructor"},{"anonymous":false,"inputs":[{"indexed":true,"internalType":"address","name":"previousOwner","type":"address"},{"indexed":true,"internalType":"address","name":"newOwner","type":"address"}],"name":"OwnershipTransferred","type":"event"},{"inputs":[{"internalType":"address","name":"_feeContractAddress","type":"address"}],"name":"changeFeeContractAddress","outputs":[],"stateMutability":"nonpayable","type":"function"},{"inputs":[{"internalType":"uint256","name":"_feeERC1155CreateAmount","type":"uint256"}],"name":"changeFeeERC1155Create","outputs":[],"stateMutability":"nonpayable","type":"function"},{"inputs":[{"internalType":"uint256","name":"_feeERC1155CreateAmountETH","type":"uint256"}],"name":"changeFeeERC1155CreateInETH","outputs":[],"stateMutability":"nonpayable","type":"function"},{"inputs":[{"internalType":"uint256","name":"_feeERC1155MintAmount","type":"uint256"}],"name":"changeFeeERC1155Mint","outputs":[],"stateMutability":"nonpayable","type":"function"},{"inputs":[{"internalType":"uint256","name":"_feeERC1155MintAmountETH","type":"uint256"}],"name":"changeFeeERC1155MintInETH","outputs":[],"stateMutability":"nonpayable","type":"function"},{"inputs":[{"internalType":"uint256","name":"_feeERC721CreateAmount","type":"uint256"}],"name":"changeFeeERC721Create","outputs":[],"stateMutability":"nonpayable","type":"function"},{"inputs":[{"internalType":"uint256","name":"_feeERC721CreateAmountETH","type":"uint256"}],"name":"changeFeeERC721CreateInETH","outputs":[],"stateMutability":"nonpayable","type":"function"},{"inputs":[{"internalType":"uint256","name":"_feeERC721MintAmount","type":"uint256"}],"name":"changeFeeERC721Mint","outputs":[],"stateMutability":"nonpayable","type":"function"},{"inputs":[{"internalType":"uint256","name":"_feeERC721MintAmountETH","type":"uint256"}],"name":"changeFeeERC721MintInETH","outputs":[],"stateMutability":"nonpayable","type":"function"},{"inputs":[{"internalType":"address","name":"_feeTreasuryAddress","type":"address"}],"name":"changeFeeTreasuryAddress","outputs":[],"stateMutability":"nonpayable","type":"function"},{"inputs":[],"name":"feeContractAddress","outputs":[{"internalType":"address","name":"","type":"address"}],"stateMutability":"view","type":"function"},{"inputs":[],"name":"feeERC1155CreateAmount","outputs":[{"internalType":"uint256","name":"","type":"uint256"}],"stateMutability":"view","type":"function"},{"inputs":[],"name":"feeERC1155CreateAmountETH","outputs":[{"internalType":"uint256","name":"","type":"uint256"}],"stateMutability":"view","type":"function"},{"inputs":[],"name":"feeERC1155MintAmount","outputs":[{"internalType":"uint256","name":"","type":"uint256"}],"stateMutability":"view","type":"function"},{"inputs":[],"name":"feeERC1155MintAmountETH","outputs":[{"internalType":"uint256","name":"","type":"uint256"}],"stateMutability":"view","type":"function"},{"inputs":[],"name":"feeERC721CreateAmount","outputs":[{"internalType":"uint256","name":"","type":"uint256"}],"stateMutability":"view","type":"function"},{"inputs":[],"name":"feeERC721CreateAmountETH","outputs":[{"internalType":"uint256","name":"","type":"uint256"}],"stateMutability":"view","type":"function"},{"inputs":[],"name":"feeERC721MintAmount","outputs":[{"internalType":"uint256","name":"","type":"uint256"}],"stateMutability":"view","type":"function"},{"inputs":[],"name":"feeERC721MintAmountETH","outputs":[{"internalType":"uint256","name":"","type":"uint256"}],"stateMutability":"view","type":"function"},{"inputs":[],"name":"feeTreasuryAddress","outputs":[{"internalType":"address","name":"","type":"address"}],"stateMutability":"view","type":"function"},{"inputs":[],"name":"getFeeContractAddress","outputs":[{"internalType":"address","name":"","type":"address"}],"stateMutability":"view","type":"function"},{"inputs":[],"name":"getFeeERC1155Create","outputs":[{"internalType":"uint256","name":"","type":"uint256"}],"stateMutability":"view","type":"function"},{"inputs":[],"name":"getFeeERC1155CreateInETH","outputs":[{"internalType":"uint256","name":"","type":"uint256"}],"stateMutability":"view","type":"function"},{"inputs":[],"name":"getFeeERC1155Mint","outputs":[{"internalType":"uint256","name":"","type":"uint256"}],"stateMutability":"view","type":"function"},{"inputs":[],"name":"getFeeERC1155MintInETH","outputs":[{"internalType":"uint256","name":"","type":"uint256"}],"stateMutability":"view","type":"function"},{"inputs":[],"name":"getFeeERC721Create","outputs":[{"internalType":"uint256","name":"","type":"uint256"}],"stateMutability":"view","type":"function"},{"inputs":[],"name":"getFeeERC721CreateInETH","outputs":[{"internalType":"uint256","name":"","type":"uint256"}],"stateMutability":"view","type":"function"},{"inputs":[],"name":"getFeeERC721Mint","outputs":[{"internalType":"uint256","name":"","type":"uint256"}],"stateMutability":"view","type":"function"},{"inputs":[],"name":"getFeeERC721MintInETH","outputs":[{"internalType":"uint256","name":"","type":"uint256"}],"stateMutability":"view","type":"function"},{"inputs":[],"name":"getFeeTreasuryAddress","outputs":[{"internalType":"address","name":"","type":"address"}],"stateMutability":"view","type":"function"},{"inputs":[],"name":"owner","outputs":[{"internalType":"address","name":"","type":"address"}],"stateMutability":"view","type":"function"},{"inputs":[],"name":"renounceOwnership","outputs":[],"stateMutability":"nonpayable","type":"function"},{"inputs":[{"internalType":"address","name":"newOwner","type":"address"}],"name":"transferOwnership","outputs":[],"stateMutability":"nonpayable","type":"function"}],"evm":{"bytecode":{"linkReferences":{},"object":"608060405234801561001057600080fd5b506040516108a33803806108a383398101604081905261002f91610108565b61003f61003a610098565b61009c565b600180546001600160a01b039b8c166001600160a01b031991821617909155600280549a909b16991698909817909855600395909555600493909355600591909155600655600755600855600991909155600a55610189565b3390565b600080546001600160a01b038381166001600160a01b0319831681178455604051919092169283917f8be0079c531659141344cd1fd0a4f28419497f9722a3daafe3b4186f6b6457e09190a35050565b80516001600160a01b038116811461010357600080fd5b919050565b6000806000806000806000806000806101408b8d031215610127578586fd5b6101308b6100ec565b995061013e60208c016100ec565b985060408b0151975060608b0151965060808b0151955060a08b0151945060c08b0151935060e08b015192506101008b015191506101208b015190509295989b9194979a5092959850565b61070b806101986000396000f3fe608060405234801561001057600080fd5b50600436106101fb5760003560e01c8063715018a61161011a578063cbef2882116100ad578063e7986b7a1161007c578063e7986b7a1461035d578063ec55cff614610370578063f2fde38b14610378578063ff58a8801461038b578063ff6ee94e1461039e576101fb565b8063cbef28821461033d578063cd3b4d9614610345578063dba2df9d1461034d578063e61c4f0814610355576101fb565b80638da5cb5b116100e95780638da5cb5b1461031d5780639069fcef14610325578063c3f008641461032d578063c79577d414610335576101fb565b8063715018a6146102f25780637612ccb5146102fa5780637bb8b4c41461030257806385a6ebb91461030a576101fb565b80634f21773111610192578063593acdad11610161578063593acdad146102bc5780635d911994146102cf5780635e2710f5146102d75780636367540d146102ea576101fb565b80634f21773114610291578063503379d51461029957806354f20227146102a157806355f0a945146102b4576101fb565b80631e158e5e116101ce5780631e158e5e14610243578063214a5076146102565780633ebab3c814610269578063497ea6581461027c576101fb565b80630be2e01f14610200578063175f50ab1461021e578063177bcc05146102265780631d5bb71a1461023b575b600080fd5b6102086103a6565b60405161021591906106cc565b60405180910390f35b6102086103ac565b610239610234366004610625565b6103b2565b005b6102086103bf565b6102396102513660046105f7565b6103c5565b610239610264366004610625565b6103ef565b610239610277366004610625565b6103fc565b610284610409565b604051610215919061063d565b610208610418565b61020861041e565b6102396102af366004610625565b610424565b610208610431565b6102396102ca366004610625565b610437565b610208610444565b6102396102e53660046105f7565b61044a565b610208610474565b61023961047a565b61020861048e565b610208610494565b610239610318366004610625565b61049a565b6102846104a7565b6102086104b6565b6102086104bc565b6102086104c2565b6102086104c8565b6102086104ce565b6102846104d4565b6102086104e3565b61023961036b366004610625565b6104e9565b6102846104f6565b6102396103863660046105f7565b610505565b610239610399366004610625565b610548565b610284610555565b60045490565b60075481565b6103ba610564565b600555565b60095481565b6103cd610564565b600180546001600160a01b0319166001600160a01b0392909216919091179055565b6103f7610564565b600455565b610404610564565b600855565b6001546001600160a01b031681565b60085481565b60055481565b61042c610564565b600355565b60085490565b61043f610564565b600755565b60065490565b610452610564565b600280546001600160a01b0319166001600160a01b0392909216919091179055565b600a5490565b610482610564565b61048c60006105a3565b565b60075490565b600a5481565b6104a2610564565b600655565b6000546001600160a01b031690565b60035490565b60065481565b60055490565b60035481565b60045481565b6002546001600160a01b031681565b60095490565b6104f1610564565b600955565b6002546001600160a01b031690565b61050d610564565b6001600160a01b03811661053c5760405162461bcd60e51b815260040161053390610651565b60405180910390fd5b610545816105a3565b50565b610550610564565b600a55565b6001546001600160a01b031690565b61056c6105f3565b6001600160a01b031661057d6104a7565b6001600160a01b03161461048c5760405162461bcd60e51b815260040161053390610697565b600080546001600160a01b038381166001600160a01b0319831681178455604051919092169283917f8be0079c531659141344cd1fd0a4f28419497f9722a3daafe3b4186f6b6457e09190a35050565b3390565b600060208284031215610608578081fd5b81356001600160a01b038116811461061e578182fd5b9392505050565b600060208284031215610636578081fd5b5035919050565b6001600160a01b0391909116815260200190565b60208082526026908201527f4f776e61626c653a206e6577206f776e657220697320746865207a65726f206160408201526564647265737360d01b606082015260800190565b6020808252818101527f4f776e61626c653a2063616c6c6572206973206e6f7420746865206f776e6572604082015260600190565b9081526020019056fea2646970667358221220872606895f15cb596e60b9bcec8d6d1e77cb4c0a22e92afcdd3a60ef3fb123c064736f6c63430008010033","opcodes":"PUSH1 0x80 PUSH1 0x40 MSTORE CALLVALUE DUP1 ISZERO PUSH2 0x10 JUMPI PUSH1 0x0 DUP1 REVERT JUMPDEST POP PUSH1 0x40 MLOAD PUSH2 0x8A3 CODESIZE SUB DUP1 PUSH2 0x8A3 DUP4 CODECOPY DUP2 ADD PUSH1 0x40 DUP2 SWAP1 MSTORE PUSH2 0x2F SWAP2 PUSH2 0x108 JUMP JUMPDEST PUSH2 0x3F PUSH2 0x3A PUSH2 0x98 JUMP JUMPDEST PUSH2 0x9C JUMP JUMPDEST PUSH1 0x1 DUP1 SLOAD PUSH1 0x1 PUSH1 0x1 PUSH1 0xA0 SHL SUB SWAP12 DUP13 AND PUSH1 0x1 PUSH1 0x1 PUSH1 0xA0 SHL SUB NOT SWAP2 DUP3 AND OR SWAP1 SWAP2 SSTORE PUSH1 0x2 DUP1 SLOAD SWAP11 SWAP1 SWAP12 AND SWAP10 AND SWAP9 SWAP1 SWAP9 OR SWAP1 SWAP9 SSTORE PUSH1 0x3 SWAP6 SWAP1 SWAP6 SSTORE PUSH1 0x4 SWAP4 SWAP1 SWAP4 SSTORE PUSH1 0x5 SWAP2 SWAP1 SWAP2 SSTORE PUSH1 0x6 SSTORE PUSH1 0x7 SSTORE PUSH1 0x8 SSTORE PUSH1 0x9 SWAP2 SWAP1 SWAP2 SSTORE PUSH1 0xA SSTORE PUSH2 0x189 JUMP JUMPDEST CALLER SWAP1 JUMP JUMPDEST PUSH1 0x0 DUP1 SLOAD PUSH1 0x1 PUSH1 0x1 PUSH1 0xA0 SHL SUB DUP4 DUP2 AND PUSH1 0x1 PUSH1 0x1 PUSH1 0xA0 SHL SUB NOT DUP4 AND DUP2 OR DUP5 SSTORE PUSH1 0x40 MLOAD SWAP2 SWAP1 SWAP3 AND SWAP3 DUP4 SWAP2 PUSH32 0x8BE0079C531659141344CD1FD0A4F28419497F9722A3DAAFE3B4186F6B6457E0 SWAP2 SWAP1 LOG3 POP POP JUMP JUMPDEST DUP1 MLOAD PUSH1 0x1 PUSH1 0x1 PUSH1 0xA0 SHL SUB DUP2 AND DUP2 EQ PUSH2 0x103 JUMPI PUSH1 0x0 DUP1 REVERT JUMPDEST SWAP2 SWAP1 POP JUMP JUMPDEST PUSH1 0x0 DUP1 PUSH1 0x0 DUP1 PUSH1 0x0 DUP1 PUSH1 0x0 DUP1 PUSH1 0x0 DUP1 PUSH2 0x140 DUP12 DUP14 SUB SLT ISZERO PUSH2 0x127 JUMPI DUP6 DUP7 REVERT JUMPDEST PUSH2 0x130 DUP12 PUSH2 0xEC JUMP JUMPDEST SWAP10 POP PUSH2 0x13E PUSH1 0x20 DUP13 ADD PUSH2 0xEC JUMP JUMPDEST SWAP9 POP PUSH1 0x40 DUP12 ADD MLOAD SWAP8 POP PUSH1 0x60 DUP12 ADD MLOAD SWAP7 POP PUSH1 0x80 DUP12 ADD MLOAD SWAP6 POP PUSH1 0xA0 DUP12 ADD MLOAD SWAP5 POP PUSH1 0xC0 DUP12 ADD MLOAD SWAP4 POP PUSH1 0xE0 DUP12 ADD MLOAD SWAP3 POP PUSH2 0x100 DUP12 ADD MLOAD SWAP2 POP PUSH2 0x120 DUP12 ADD MLOAD SWAP1 POP SWAP3 SWAP6 SWAP9 SWAP12 SWAP2 SWAP5 SWAP8 SWAP11 POP SWAP3 SWAP6 SWAP9 POP JUMP JUMPDEST PUSH2 0x70B DUP1 PUSH2 0x198 PUSH1 0x0 CODECOPY PUSH1 0x0 RETURN INVALID PUSH1 0x80 PUSH1 0x40 MSTORE CALLVALUE DUP1 ISZERO PUSH2 0x10 JUMPI PUSH1 0x0 DUP1 REVERT JUMPDEST POP PUSH1 0x4 CALLDATASIZE LT PUSH2 0x1FB JUMPI PUSH1 0x0 CALLDATALOAD PUSH1 0xE0 SHR DUP1 PUSH4 0x715018A6 GT PUSH2 0x11A JUMPI DUP1 PUSH4 0xCBEF2882 GT PUSH2 0xAD JUMPI DUP1 PUSH4 0xE7986B7A GT PUSH2 0x7C JUMPI DUP1 PUSH4 0xE7986B7A EQ PUSH2 0x35D JUMPI DUP1 PUSH4 0xEC55CFF6 EQ PUSH2 0x370 JUMPI DUP1 PUSH4 0xF2FDE38B EQ PUSH2 0x378 JUMPI DUP1 PUSH4 0xFF58A880 EQ PUSH2 0x38B JUMPI DUP1 PUSH4 0xFF6EE94E EQ PUSH2 0x39E JUMPI PUSH2 0x1FB JUMP JUMPDEST DUP1 PUSH4 0xCBEF2882 EQ PUSH2 0x33D JUMPI DUP1 PUSH4 0xCD3B4D96 EQ PUSH2 0x345 JUMPI DUP1 PUSH4 0xDBA2DF9D EQ PUSH2 0x34D JUMPI DUP1 PUSH4 0xE61C4F08 EQ PUSH2 0x355 JUMPI PUSH2 0x1FB JUMP JUMPDEST DUP1 PUSH4 0x8DA5CB5B GT PUSH2 0xE9 JUMPI DUP1 PUSH4 0x8DA5CB5B EQ PUSH2 0x31D JUMPI DUP1 PUSH4 0x9069FCEF EQ PUSH2 0x325 JUMPI DUP1 PUSH4 0xC3F00864 EQ PUSH2 0x32D JUMPI DUP1 PUSH4 0xC79577D4 EQ PUSH2 0x335 JUMPI PUSH2 0x1FB JUMP JUMPDEST DUP1 PUSH4 0x715018A6 EQ PUSH2 0x2F2 JUMPI DUP1 PUSH4 0x7612CCB5 EQ PUSH2 0x2FA JUMPI DUP1 PUSH4 0x7BB8B4C4 EQ PUSH2 0x302 JUMPI DUP1 PUSH4 0x85A6EBB9 EQ PUSH2 0x30A JUMPI PUSH2 0x1FB JUMP JUMPDEST DUP1 PUSH4 0x4F217731 GT PUSH2 0x192 JUMPI DUP1 PUSH4 0x593ACDAD GT PUSH2 0x161 JUMPI DUP1 PUSH4 0x593ACDAD EQ PUSH2 0x2BC JUMPI DUP1 PUSH4 0x5D911994 EQ PUSH2 0x2CF JUMPI DUP1 PUSH4 0x5E2710F5 EQ PUSH2 0x2D7 JUMPI DUP1 PUSH4 0x6367540D EQ PUSH2 0x2EA JUMPI PUSH2 0x1FB JUMP JUMPDEST DUP1 PUSH4 0x4F217731 EQ PUSH2 0x291 JUMPI DUP1 PUSH4 0x503379D5 EQ PUSH2 0x299 JUMPI DUP1 PUSH4 0x54F20227 EQ PUSH2 0x2A1 JUMPI DUP1 PUSH4 0x55F0A945 EQ PUSH2 0x2B4 JUMPI PUSH2 0x1FB JUMP JUMPDEST DUP1 PUSH4 0x1E158E5E GT PUSH2 0x1CE JUMPI DUP1 PUSH4 0x1E158E5E EQ PUSH2 0x243 JUMPI DUP1 PUSH4 0x214A5076 EQ PUSH2 0x256 JUMPI DUP1 PUSH4 0x3EBAB3C8 EQ PUSH2 0x269 JUMPI DUP1 PUSH4 0x497EA658 EQ PUSH2 0x27C JUMPI PUSH2 0x1FB JUMP JUMPDEST DUP1 PUSH4 0xBE2E01F EQ PUSH2 0x200 JUMPI DUP1 PUSH4 0x175F50AB EQ PUSH2 0x21E JUMPI DUP1 PUSH4 0x177BCC05 EQ PUSH2 0x226 JUMPI DUP1 PUSH4 0x1D5BB71A EQ PUSH2 0x23B JUMPI JUMPDEST PUSH1 0x0 DUP1 REVERT JUMPDEST PUSH2 0x208 PUSH2 0x3A6 JUMP JUMPDEST PUSH1 0x40 MLOAD PUSH2 0x215 SWAP2 SWAP1 PUSH2 0x6CC JUMP JUMPDEST PUSH1 0x40 MLOAD DUP1 SWAP2 SUB SWAP1 RETURN JUMPDEST PUSH2 0x208 PUSH2 0x3AC JUMP JUMPDEST PUSH2 0x239 PUSH2 0x234 CALLDATASIZE PUSH1 0x4 PUSH2 0x625 JUMP JUMPDEST PUSH2 0x3B2 JUMP JUMPDEST STOP JUMPDEST PUSH2 0x208 PUSH2 0x3BF JUMP JUMPDEST PUSH2 0x239 PUSH2 0x251 CALLDATASIZE PUSH1 0x4 PUSH2 0x5F7 JUMP JUMPDEST PUSH2 0x3C5 JUMP JUMPDEST PUSH2 0x239 PUSH2 0x264 CALLDATASIZE PUSH1 0x4 PUSH2 0x625 JUMP JUMPDEST PUSH2 0x3EF JUMP JUMPDEST PUSH2 0x239 PUSH2 0x277 CALLDATASIZE PUSH1 0x4 PUSH2 0x625 JUMP JUMPDEST PUSH2 0x3FC JUMP JUMPDEST PUSH2 0x284 PUSH2 0x409 JUMP JUMPDEST PUSH1 0x40 MLOAD PUSH2 0x215 SWAP2 SWAP1 PUSH2 0x63D JUMP JUMPDEST PUSH2 0x208 PUSH2 0x418 JUMP JUMPDEST PUSH2 0x208 PUSH2 0x41E JUMP JUMPDEST PUSH2 0x239 PUSH2 0x2AF CALLDATASIZE PUSH1 0x4 PUSH2 0x625 JUMP JUMPDEST PUSH2 0x424 JUMP JUMPDEST PUSH2 0x208 PUSH2 0x431 JUMP JUMPDEST PUSH2 0x239 PUSH2 0x2CA CALLDATASIZE PUSH1 0x4 PUSH2 0x625 JUMP JUMPDEST PUSH2 0x437 JUMP JUMPDEST PUSH2 0x208 PUSH2 0x444 JUMP JUMPDEST PUSH2 0x239 PUSH2 0x2E5 CALLDATASIZE PUSH1 0x4 PUSH2 0x5F7 JUMP JUMPDEST PUSH2 0x44A JUMP JUMPDEST PUSH2 0x208 PUSH2 0x474 JUMP JUMPDEST PUSH2 0x239 PUSH2 0x47A JUMP JUMPDEST PUSH2 0x208 PUSH2 0x48E JUMP JUMPDEST PUSH2 0x208 PUSH2 0x494 JUMP JUMPDEST PUSH2 0x239 PUSH2 0x318 CALLDATASIZE PUSH1 0x4 PUSH2 0x625 JUMP JUMPDEST PUSH2 0x49A JUMP JUMPDEST PUSH2 0x284 PUSH2 0x4A7 JUMP JUMPDEST PUSH2 0x208 PUSH2 0x4B6 JUMP JUMPDEST PUSH2 0x208 PUSH2 0x4BC JUMP JUMPDEST PUSH2 0x208 PUSH2 0x4C2 JUMP JUMPDEST PUSH2 0x208 PUSH2 0x4C8 JUMP JUMPDEST PUSH2 0x208 PUSH2 0x4CE JUMP JUMPDEST PUSH2 0x284 PUSH2 0x4D4 JUMP JUMPDEST PUSH2 0x208 PUSH2 0x4E3 JUMP JUMPDEST PUSH2 0x239 PUSH2 0x36B CALLDATASIZE PUSH1 0x4 PUSH2 0x625 JUMP JUMPDEST PUSH2 0x4E9 JUMP JUMPDEST PUSH2 0x284 PUSH2 0x4F6 JUMP JUMPDEST PUSH2 0x239 PUSH2 0x386 CALLDATASIZE PUSH1 0x4 PUSH2 0x5F7 JUMP JUMPDEST PUSH2 0x505 JUMP JUMPDEST PUSH2 0x239 PUSH2 0x399 CALLDATASIZE PUSH1 0x4 PUSH2 0x625 JUMP JUMPDEST PUSH2 0x548 JUMP JUMPDEST PUSH2 0x284 PUSH2 0x555 JUMP JUMPDEST PUSH1 0x4 SLOAD SWAP1 JUMP JUMPDEST PUSH1 0x7 SLOAD DUP2 JUMP JUMPDEST PUSH2 0x3BA PUSH2 0x564 JUMP JUMPDEST PUSH1 0x5 SSTORE JUMP JUMPDEST PUSH1 0x9 SLOAD DUP2 JUMP JUMPDEST PUSH2 0x3CD PUSH2 0x564 JUMP JUMPDEST PUSH1 0x1 DUP1 SLOAD PUSH1 0x1 PUSH1 0x1 PUSH1 0xA0 SHL SUB NOT AND PUSH1 0x1 PUSH1 0x1 PUSH1 0xA0 SHL SUB SWAP3 SWAP1 SWAP3 AND SWAP2 SWAP1 SWAP2 OR SWAP1 SSTORE JUMP JUMPDEST PUSH2 0x3F7 PUSH2 0x564 JUMP JUMPDEST PUSH1 0x4 SSTORE JUMP JUMPDEST PUSH2 0x404 PUSH2 0x564 JUMP JUMPDEST PUSH1 0x8 SSTORE JUMP JUMPDEST PUSH1 0x1 SLOAD PUSH1 0x1 PUSH1 0x1 PUSH1 0xA0 SHL SUB AND DUP2 JUMP JUMPDEST PUSH1 0x8 SLOAD DUP2 JUMP JUMPDEST PUSH1 0x5 SLOAD DUP2 JUMP JUMPDEST PUSH2 0x42C PUSH2 0x564 JUMP JUMPDEST PUSH1 0x3 SSTORE JUMP JUMPDEST PUSH1 0x8 SLOAD SWAP1 JUMP JUMPDEST PUSH2 0x43F PUSH2 0x564 JUMP JUMPDEST PUSH1 0x7 SSTORE JUMP JUMPDEST PUSH1 0x6 SLOAD SWAP1 JUMP JUMPDEST PUSH2 0x452 PUSH2 0x564 JUMP JUMPDEST PUSH1 0x2 DUP1 SLOAD PUSH1 0x1 PUSH1 0x1 PUSH1 0xA0 SHL SUB NOT AND PUSH1 0x1 PUSH1 0x1 PUSH1 0xA0 SHL SUB SWAP3 SWAP1 SWAP3 AND SWAP2 SWAP1 SWAP2 OR SWAP1 SSTORE JUMP JUMPDEST PUSH1 0xA SLOAD SWAP1 JUMP JUMPDEST PUSH2 0x482 PUSH2 0x564 JUMP JUMPDEST PUSH2 0x48C PUSH1 0x0 PUSH2 0x5A3 JUMP JUMPDEST JUMP JUMPDEST PUSH1 0x7 SLOAD SWAP1 JUMP JUMPDEST PUSH1 0xA SLOAD DUP2 JUMP JUMPDEST PUSH2 0x4A2 PUSH2 0x564 JUMP JUMPDEST PUSH1 0x6 SSTORE JUMP JUMPDEST PUSH1 0x0 SLOAD PUSH1 0x1 PUSH1 0x1 PUSH1 0xA0 SHL SUB AND SWAP1 JUMP JUMPDEST PUSH1 0x3 SLOAD SWAP1 JUMP JUMPDEST PUSH1 0x6 SLOAD DUP2 JUMP JUMPDEST PUSH1 0x5 SLOAD SWAP1 JUMP JUMPDEST PUSH1 0x3 SLOAD DUP2 JUMP JUMPDEST PUSH1 0x4 SLOAD DUP2 JUMP JUMPDEST PUSH1 0x2 SLOAD PUSH1 0x1 PUSH1 0x1 PUSH1 0xA0 SHL SUB AND DUP2 JUMP JUMPDEST PUSH1 0x9 SLOAD SWAP1 JUMP JUMPDEST PUSH2 0x4F1 PUSH2 0x564 JUMP JUMPDEST PUSH1 0x9 SSTORE JUMP JUMPDEST PUSH1 0x2 SLOAD PUSH1 0x1 PUSH1 0x1 PUSH1 0xA0 SHL SUB AND SWAP1 JUMP JUMPDEST PUSH2 0x50D PUSH2 0x564 JUMP JUMPDEST PUSH1 0x1 PUSH1 0x1 PUSH1 0xA0 SHL SUB DUP2 AND PUSH2 0x53C JUMPI PUSH1 0x40 MLOAD PUSH3 0x461BCD PUSH1 0xE5 SHL DUP2 MSTORE PUSH1 0x4 ADD PUSH2 0x533 SWAP1 PUSH2 0x651 JUMP JUMPDEST PUSH1 0x40 MLOAD DUP1 SWAP2 SUB SWAP1 REVERT JUMPDEST PUSH2 0x545 DUP2 PUSH2 0x5A3 JUMP JUMPDEST POP JUMP JUMPDEST PUSH2 0x550 PUSH2 0x564 JUMP JUMPDEST PUSH1 0xA SSTORE JUMP JUMPDEST PUSH1 0x1 SLOAD PUSH1 0x1 PUSH1 0x1 PUSH1 0xA0 SHL SUB AND SWAP1 JUMP JUMPDEST PUSH2 0x56C PUSH2 0x5F3 JUMP JUMPDEST PUSH1 0x1 PUSH1 0x1 PUSH1 0xA0 SHL SUB AND PUSH2 0x57D PUSH2 0x4A7 JUMP JUMPDEST PUSH1 0x1 PUSH1 0x1 PUSH1 0xA0 SHL SUB AND EQ PUSH2 0x48C JUMPI PUSH1 0x40 MLOAD PUSH3 0x461BCD PUSH1 0xE5 SHL DUP2 MSTORE PUSH1 0x4 ADD PUSH2 0x533 SWAP1 PUSH2 0x697 JUMP JUMPDEST PUSH1 0x0 DUP1 SLOAD PUSH1 0x1 PUSH1 0x1 PUSH1 0xA0 SHL SUB DUP4 DUP2 AND PUSH1 0x1 PUSH1 0x1 PUSH1 0xA0 SHL SUB NOT DUP4 AND DUP2 OR DUP5 SSTORE PUSH1 0x40 MLOAD SWAP2 SWAP1 SWAP3 AND SWAP3 DUP4 SWAP2 PUSH32 0x8BE0079C531659141344CD1FD0A4F28419497F9722A3DAAFE3B4186F6B6457E0 SWAP2 SWAP1 LOG3 POP POP JUMP JUMPDEST CALLER SWAP1 JUMP JUMPDEST PUSH1 0x0 PUSH1 0x20 DUP3 DUP5 SUB SLT ISZERO PUSH2 0x608 JUMPI DUP1 DUP2 REVERT JUMPDEST DUP2 CALLDATALOAD PUSH1 0x1 PUSH1 0x1 PUSH1 0xA0 SHL SUB DUP2 AND DUP2 EQ PUSH2 0x61E JUMPI DUP2 DUP3 REVERT JUMPDEST SWAP4 SWAP3 POP POP POP JUMP JUMPDEST PUSH1 0x0 PUSH1 0x20 DUP3 DUP5 SUB SLT ISZERO PUSH2 0x636 JUMPI DUP1 DUP2 REVERT JUMPDEST POP CALLDATALOAD SWAP2 SWAP1 POP JUMP JUMPDEST PUSH1 0x1 PUSH1 0x1 PUSH1 0xA0 SHL SUB SWAP2 SWAP1 SWAP2 AND DUP2 MSTORE PUSH1 0x20 ADD SWAP1 JUMP JUMPDEST PUSH1 0x20 DUP1 DUP3 MSTORE PUSH1 0x26 SWAP1 DUP3 ADD MSTORE PUSH32 0x4F776E61626C653A206E6577206F776E657220697320746865207A65726F2061 PUSH1 0x40 DUP3 ADD MSTORE PUSH6 0x646472657373 PUSH1 0xD0 SHL PUSH1 0x60 DUP3 ADD MSTORE PUSH1 0x80 ADD SWAP1 JUMP JUMPDEST PUSH1 0x20 DUP1 DUP3 MSTORE DUP2 DUP2 ADD MSTORE PUSH32 0x4F776E61626C653A2063616C6C6572206973206E6F7420746865206F776E6572 PUSH1 0x40 DUP3 ADD MSTORE PUSH1 0x60 ADD SWAP1 JUMP JUMPDEST SWAP1 DUP2 MSTORE PUSH1 0x20 ADD SWAP1 JUMP INVALID LOG2 PUSH5 0x6970667358 0x22 SLT KECCAK256 DUP8 0x26 MOD DUP10 0x5F ISZERO 0xCB MSIZE PUSH15 0x60B9BCEC8D6D1E77CB4C0A22E92AFC 0xDD GASPRICE PUSH1 0xEF EXTCODEHASH 0xB1 0x23 0xC0 PUSH5 0x736F6C6343 STOP ADDMOD ADD STOP CALLER "},"methodIdentifiers":{"changeFeeContractAddress(address)":"5e2710f5","changeFeeERC1155Create(uint256)":"214a5076","changeFeeERC1155CreateInETH(uint256)":"3ebab3c8","changeFeeERC1155Mint(uint256)":"85a6ebb9","changeFeeERC1155MintInETH(uint256)":"ff58a880","changeFeeERC721Create(uint256)":"54f20227","changeFeeERC721CreateInETH(uint256)":"593acdad","changeFeeERC721Mint(uint256)":"177bcc05","changeFeeERC721MintInETH(uint256)":"e7986b7a","changeFeeTreasuryAddress(address)":"1e158e5e","feeContractAddress()":"dba2df9d","feeERC1155CreateAmount()":"cd3b4d96","feeERC1155CreateAmountETH()":"4f217731","feeERC1155MintAmount()":"c3f00864","feeERC1155MintAmountETH()":"7bb8b4c4","feeERC721CreateAmount()":"cbef2882","feeERC721CreateAmountETH()":"175f50ab","feeERC721MintAmount()":"503379d5","feeERC721MintAmountETH()":"1d5bb71a","feeTreasuryAddress()":"497ea658","getFeeContractAddress()":"ec55cff6","getFeeERC1155Create()":"0be2e01f","getFeeERC1155CreateInETH()":"55f0a945","getFeeERC1155Mint()":"5d911994","getFeeERC1155MintInETH()":"6367540d","getFeeERC721Create()":"9069fcef","getFeeERC721CreateInETH()":"7612ccb5","getFeeERC721Mint()":"c79577d4","getFeeERC721MintInETH()":"e61c4f08","getFeeTreasuryAddress()":"ff6ee94e","owner()":"8da5cb5b","renounceOwnership()":"715018a6","transferOwnership(address)":"f2fde38b"}}}}}