{
  "_format": "hh-sol-artifact-1",
  "contractName": "VIWERC1155",
  "sourceName": "contracts/VIWERC1155.sol",
  "abi": [
    {
      "inputs": [
        {
          "internalType": "string",
          "name": "_name",
          "type": "string"
        },
        {
          "internalType": "string",
          "name": "_symbol",
          "type": "string"
        },
        {
          "internalType": "address",
          "name": "owner",
          "type": "address"
        },
        {
          "internalType": "address",
          "name": "_feeManager",
          "type": "address"
        }
      ],
      "stateMutability": "nonpayable",
      "type": "constructor"
    },
    {
      "anonymous": false,
      "inputs": [
        {
          "indexed": true,
          "internalType": "address",
          "name": "account",
          "type": "address"
        },
        {
          "indexed": true,
          "internalType": "address",
          "name": "operator",
          "type": "address"
        },
        {
          "indexed": false,
          "internalType": "bool",
          "name": "approved",
          "type": "bool"
        }
      ],
      "name": "ApprovalForAll",
      "type": "event"
    },
    {
      "anonymous": false,
      "inputs": [
        {
          "indexed": true,
          "internalType": "address",
          "name": "previousOwner",
          "type": "address"
        },
        {
          "indexed": true,
          "internalType": "address",
          "name": "newOwner",
          "type": "address"
        }
      ],
      "name": "OwnershipTransferred",
      "type": "event"
    },
    {
      "anonymous": false,
      "inputs": [
        {
          "indexed": true,
          "internalType": "address",
          "name": "operator",
          "type": "address"
        },
        {
          "indexed": true,
          "internalType": "address",
          "name": "from",
          "type": "address"
        },
        {
          "indexed": true,
          "internalType": "address",
          "name": "to",
          "type": "address"
        },
        {
          "indexed": false,
          "internalType": "uint256[]",
          "name": "ids",
          "type": "uint256[]"
        },
        {
          "indexed": false,
          "internalType": "uint256[]",
          "name": "values",
          "type": "uint256[]"
        }
      ],
      "name": "TransferBatch",
      "type": "event"
    },
    {
      "anonymous": false,
      "inputs": [
        {
          "indexed": true,
          "internalType": "address",
          "name": "operator",
          "type": "address"
        },
        {
          "indexed": true,
          "internalType": "address",
          "name": "from",
          "type": "address"
        },
        {
          "indexed": true,
          "internalType": "address",
          "name": "to",
          "type": "address"
        },
        {
          "indexed": false,
          "internalType": "uint256",
          "name": "id",
          "type": "uint256"
        },
        {
          "indexed": false,
          "internalType": "uint256",
          "name": "value",
          "type": "uint256"
        }
      ],
      "name": "TransferSingle",
      "type": "event"
    },
    {
      "anonymous": false,
      "inputs": [
        {
          "indexed": false,
          "internalType": "string",
          "name": "value",
          "type": "string"
        },
        {
          "indexed": true,
          "internalType": "uint256",
          "name": "id",
          "type": "uint256"
        }
      ],
      "name": "URI",
      "type": "event"
    },
    {
      "inputs": [
        {
          "internalType": "address",
          "name": "account",
          "type": "address"
        },
        {
          "internalType": "uint256",
          "name": "id",
          "type": "uint256"
        }
      ],
      "name": "balanceOf",
      "outputs": [
        {
          "internalType": "uint256",
          "name": "",
          "type": "uint256"
        }
      ],
      "stateMutability": "view",
      "type": "function"
    },
    {
      "inputs": [
        {
          "internalType": "address[]",
          "name": "accounts",
          "type": "address[]"
        },
        {
          "internalType": "uint256[]",
          "name": "ids",
          "type": "uint256[]"
        }
      ],
      "name": "balanceOfBatch",
      "outputs": [
        {
          "internalType": "uint256[]",
          "name": "",
          "type": "uint256[]"
        }
      ],
      "stateMutability": "view",
      "type": "function"
    },
    {
      "inputs": [
        {
          "internalType": "uint256",
          "name": "",
          "type": "uint256"
        }
      ],
      "name": "creators",
      "outputs": [
        {
          "internalType": "address",
          "name": "",
          "type": "address"
        }
      ],
      "stateMutability": "view",
      "type": "function"
    },
    {
      "inputs": [],
      "name": "feeManager",
      "outputs": [
        {
          "internalType": "address",
          "name": "",
          "type": "address"
        }
      ],
      "stateMutability": "view",
      "type": "function"
    },
    {
      "inputs": [
        {
          "internalType": "address",
          "name": "account",
          "type": "address"
        },
        {
          "internalType": "address",
          "name": "operator",
          "type": "address"
        }
      ],
      "name": "isApprovedForAll",
      "outputs": [
        {
          "internalType": "bool",
          "name": "",
          "type": "bool"
        }
      ],
      "stateMutability": "view",
      "type": "function"
    },
    {
      "inputs": [
        {
          "internalType": "address",
          "name": "_to",
          "type": "address"
        },
        {
          "internalType": "uint256",
          "name": "_tokenId",
          "type": "uint256"
        },
        {
          "internalType": "uint256",
          "name": "_quantity",
          "type": "uint256"
        },
        {
          "internalType": "string",
          "name": "_uri",
          "type": "string"
        }
      ],
      "name": "mintInERC20",
      "outputs": [],
      "stateMutability": "nonpayable",
      "type": "function"
    },
    {
      "inputs": [
        {
          "internalType": "address",
          "name": "_to",
          "type": "address"
        },
        {
          "internalType": "uint256",
          "name": "_tokenId",
          "type": "uint256"
        },
        {
          "internalType": "uint256",
          "name": "_quantity",
          "type": "uint256"
        },
        {
          "internalType": "string",
          "name": "_uri",
          "type": "string"
        }
      ],
      "name": "mintInETH",
      "outputs": [],
      "stateMutability": "payable",
      "type": "function"
    },
    {
      "inputs": [],
      "name": "name",
      "outputs": [
        {
          "internalType": "string",
          "name": "",
          "type": "string"
        }
      ],
      "stateMutability": "view",
      "type": "function"
    },
    {
      "inputs": [],
      "name": "owner",
      "outputs": [
        {
          "internalType": "address",
          "name": "",
          "type": "address"
        }
      ],
      "stateMutability": "view",
      "type": "function"
    },
    {
      "inputs": [],
      "name": "renounceOwnership",
      "outputs": [],
      "stateMutability": "nonpayable",
      "type": "function"
    },
    {
      "inputs": [
        {
          "internalType": "address",
          "name": "from",
          "type": "address"
        },
        {
          "internalType": "address",
          "name": "to",
          "type": "address"
        },
        {
          "internalType": "uint256[]",
          "name": "ids",
          "type": "uint256[]"
        },
        {
          "internalType": "uint256[]",
          "name": "amounts",
          "type": "uint256[]"
        },
        {
          "internalType": "bytes",
          "name": "data",
          "type": "bytes"
        }
      ],
      "name": "safeBatchTransferFrom",
      "outputs": [],
      "stateMutability": "nonpayable",
      "type": "function"
    },
    {
      "inputs": [
        {
          "internalType": "address",
          "name": "from",
          "type": "address"
        },
        {
          "internalType": "address",
          "name": "to",
          "type": "address"
        },
        {
          "internalType": "uint256",
          "name": "id",
          "type": "uint256"
        },
        {
          "internalType": "uint256",
          "name": "amount",
          "type": "uint256"
        },
        {
          "internalType": "bytes",
          "name": "data",
          "type": "bytes"
        }
      ],
      "name": "safeTransferFrom",
      "outputs": [],
      "stateMutability": "nonpayable",
      "type": "function"
    },
    {
      "inputs": [
        {
          "internalType": "address",
          "name": "operator",
          "type": "address"
        },
        {
          "internalType": "bool",
          "name": "approved",
          "type": "bool"
        }
      ],
      "name": "setApprovalForAll",
      "outputs": [],
      "stateMutability": "nonpayable",
      "type": "function"
    },
    {
      "inputs": [
        {
          "internalType": "bytes4",
          "name": "interfaceId",
          "type": "bytes4"
        }
      ],
      "name": "supportsInterface",
      "outputs": [
        {
          "internalType": "bool",
          "name": "",
          "type": "bool"
        }
      ],
      "stateMutability": "view",
      "type": "function"
    },
    {
      "inputs": [],
      "name": "symbol",
      "outputs": [
        {
          "internalType": "string",
          "name": "",
          "type": "string"
        }
      ],
      "stateMutability": "view",
      "type": "function"
    },
    {
      "inputs": [
        {
          "internalType": "uint256",
          "name": "",
          "type": "uint256"
        }
      ],
      "name": "tokenSupply",
      "outputs": [
        {
          "internalType": "uint256",
          "name": "",
          "type": "uint256"
        }
      ],
      "stateMutability": "view",
      "type": "function"
    },
    {
      "inputs": [
        {
          "internalType": "address",
          "name": "newOwner",
          "type": "address"
        }
      ],
      "name": "transferOwnership",
      "outputs": [],
      "stateMutability": "nonpayable",
      "type": "function"
    },
    {
      "inputs": [
        {
          "internalType": "uint256",
          "name": "_id",
          "type": "uint256"
        }
      ],
      "name": "uri",
      "outputs": [
        {
          "internalType": "string",
          "name": "",
          "type": "string"
        }
      ],
      "stateMutability": "view",
      "type": "function"
    }
  ],
  "bytecode": "0x60806040523480156200001157600080fd5b50604051620027b6380380620027b6833981016040819052620000349162000345565b6040805160208101909152600081526200004e81620000bf565b50620000636200005d620000d8565b620000dc565b835162000078906007906020870190620001cf565b5082516200008e906008906020860190620001cf565b50600980546001600160a01b0319166001600160a01b038316179055620000b5826200012e565b505050506200049f565b8051620000d4906002906020840190620001cf565b5050565b3390565b600380546001600160a01b038381166001600160a01b0319831681179093556040519116919082907f8be0079c531659141344cd1fd0a4f28419497f9722a3daafe3b4186f6b6457e090600090a35050565b6200013862000178565b6001600160a01b0381166200016a5760405162461bcd60e51b81526004016200016190620003d1565b60405180910390fd5b6200017581620000dc565b50565b62000182620000d8565b6001600160a01b031662000195620001c0565b6001600160a01b031614620001be5760405162461bcd60e51b8152600401620001619062000417565b565b6003546001600160a01b031690565b828054620001dd906200044c565b90600052602060002090601f0160209004810192826200020157600085556200024c565b82601f106200021c57805160ff19168380011785556200024c565b828001600101855582156200024c579182015b828111156200024c5782518255916020019190600101906200022f565b506200025a9291506200025e565b5090565b5b808211156200025a57600081556001016200025f565b80516001600160a01b03811681146200028d57600080fd5b919050565b600082601f830112620002a3578081fd5b81516001600160401b0380821115620002c057620002c062000489565b604051601f8301601f19908116603f01168101908282118183101715620002eb57620002eb62000489565b8160405283815260209250868385880101111562000307578485fd5b8491505b838210156200032a57858201830151818301840152908201906200030b565b838211156200033b57848385830101525b9695505050505050565b600080600080608085870312156200035b578384fd5b84516001600160401b038082111562000372578586fd5b620003808883890162000292565b9550602087015191508082111562000396578485fd5b50620003a58782880162000292565b935050620003b66040860162000275565b9150620003c66060860162000275565b905092959194509250565b60208082526026908201527f4f776e61626c653a206e6577206f776e657220697320746865207a65726f206160408201526564647265737360d01b606082015260800190565b6020808252818101527f4f776e61626c653a2063616c6c6572206973206e6f7420746865206f776e6572604082015260600190565b6002810460018216806200046157607f821691505b602082108114156200048357634e487b7160e01b600052602260045260246000fd5b50919050565b634e487b7160e01b600052604160045260246000fd5b61230780620004af6000396000f3fe6080604052600436106101085760003560e01c806395d89b4111610095578063cd53d08e11610064578063cd53d08e146102c0578063d0fb0203146102e0578063e985e9c5146102f5578063f242432a14610315578063f2fde38b1461033557610108565b806395d89b4114610258578063a22cb4651461026d578063aee4adb01461028d578063b11d8ded146102a057610108565b80632693ebf2116100dc5780632693ebf2146101b25780632eb2c2d6146101d25780634e1273f4146101f4578063715018a6146102215780638da5cb5b1461023657610108565b8062fdd58e1461010d57806301ffc9a71461014357806306fdde03146101705780630e89341c14610192575b600080fd5b34801561011957600080fd5b5061012d61012836600461193a565b610355565b60405161013a91906120ed565b60405180910390f35b34801561014f57600080fd5b5061016361015e366004611ac0565b6103ac565b60405161013a9190611cc9565b34801561017c57600080fd5b506101856103f2565b60405161013a9190611cd4565b34801561019e57600080fd5b506101856101ad366004611af8565b610480565b3480156101be57600080fd5b5061012d6101cd366004611af8565b6105e2565b3480156101de57600080fd5b506101f26101ed3660046117fc565b6105f4565b005b34801561020057600080fd5b5061021461020f3660046119d9565b610652565b60405161013a9190611c88565b34801561022d57600080fd5b506101f2610772565b34801561024257600080fd5b5061024b610786565b60405161013a9190611bad565b34801561026457600080fd5b50610185610796565b34801561027957600080fd5b506101f261028836600461190d565b6107a3565b6101f261029b366004611965565b6107b9565b3480156102ac57600080fd5b506101f26102bb366004611965565b610a07565b3480156102cc57600080fd5b5061024b6102db366004611af8565b610d0c565b3480156102ec57600080fd5b5061024b610d27565b34801561030157600080fd5b506101636103103660046117c4565b610d36565b34801561032157600080fd5b506101f26103303660046118a6565b610d64565b34801561034157600080fd5b506101f261035036600461178c565b610dbb565b60006001600160a01b0383166103865760405162461bcd60e51b815260040161037d90611df2565b60405180910390fd5b506000908152602081815260408083206001600160a01b03949094168352929052205490565b60006001600160e01b03198216636cdb3d1360e11b14806103dd57506001600160e01b031982166303a24d0760e21b145b806103ec57506103ec82610df5565b92915050565b600780546103ff90612140565b80601f016020809104026020016040519081016040528092919081815260200182805461042b90612140565b80156104785780601f1061044d57610100808354040283529160200191610478565b820191906000526020600020905b81548152906001019060200180831161045b57829003601f168201915b505050505081565b606061048b82610e0e565b6104a75760405162461bcd60e51b815260040161037d90611dac565b600082815260066020526040812080546104c090612140565b80601f01602080910402602001604051908101604052809291908181526020018280546104ec90612140565b80156105395780601f1061050e57610100808354040283529160200191610539565b820191906000526020600020905b81548152906001019060200180831161051c57829003601f168201915b505050600086815260066020526040902080549394509261055c92509050612140565b80601f016020809104026020016040519081016040528092919081815260200182805461058890612140565b80156105d55780601f106105aa576101008083540402835291602001916105d5565b820191906000526020600020905b8154815290600101906020018083116105b857829003601f168201915b5050505050915050919050565b60046020526000908152604090205481565b6105fc610e2b565b6001600160a01b0316856001600160a01b03161480610622575061062285610310610e2b565b61063e5760405162461bcd60e51b815260040161037d90611e3c565b61064b8585858585610e2f565b5050505050565b606081518351146106755760405162461bcd60e51b815260040161037d90611f97565b6000835167ffffffffffffffff81111561069f57634e487b7160e01b600052604160045260246000fd5b6040519080825280602002602001820160405280156106c8578160200160208202803683370190505b50905060005b845181101561076a5761072f8582815181106106fa57634e487b7160e01b600052603260045260246000fd5b602002602001015185838151811061072257634e487b7160e01b600052603260045260246000fd5b6020026020010151610355565b82828151811061074f57634e487b7160e01b600052603260045260246000fd5b6020908102919091010152610763816121a8565b90506106ce565b509392505050565b61077a611006565b6107846000611045565b565b6003546001600160a01b03165b90565b600880546103ff90612140565b6107b56107ae610e2b565b8383611097565b5050565b6107c1611006565b6107ca83610e0e565b156107e75760405162461bcd60e51b815260040161037d90611ce7565b60095460408051600162488b5960e11b0319815290516000926001600160a01b03169163ff6ee94e916004808301926020929190829003018186803b15801561082f57600080fd5b505afa158015610843573d6000803e3d6000fd5b505050506040513d601f19601f8201168201806040525081019061086791906117a8565b90506000600960009054906101000a90046001600160a01b03166001600160a01b0316636367540d6040518163ffffffff1660e01b815260040160206040518083038186803b1580156108b957600080fd5b505afa1580156108cd573d6000803e3d6000fd5b505050506040513d601f19601f820116820180604052508101906108f19190611b10565b905033318111156109145760405162461bcd60e51b815260040161037d90611fe0565b6040516001600160a01b0383169082156108fc029083906000818181858888f1935050505015801561094a573d6000803e3d6000fd5b50600085815260056020526040902080546001600160a01b0319166001600160a01b0388161790558251156109d25760008581526006602090815260409091208451610998928601906115fd565b50847f6bb7ff708619ba0610cba295a58592e0451dee2622938c8755667688daf3529b846040516109c99190611cd4565b60405180910390a25b6000858152600460209081526040808320879055805191820190529081526109ff9087908790879061113a565b505050505050565b610a0f611006565b610a1883610e0e565b15610a355760405162461bcd60e51b815260040161037d90611ce7565b60095460408051600162488b5960e11b0319815290516000926001600160a01b03169163ff6ee94e916004808301926020929190829003018186803b158015610a7d57600080fd5b505afa158015610a91573d6000803e3d6000fd5b505050506040513d601f19601f82011682018060405250810190610ab591906117a8565b90506000600960009054906101000a90046001600160a01b03166001600160a01b031663ec55cff66040518163ffffffff1660e01b815260040160206040518083038186803b158015610b0757600080fd5b505afa158015610b1b573d6000803e3d6000fd5b505050506040513d601f19601f82011682018060405250810190610b3f91906117a8565b90506000600960009054906101000a90046001600160a01b03166001600160a01b0316635d9119946040518163ffffffff1660e01b815260040160206040518083038186803b158015610b9157600080fd5b505afa158015610ba5573d6000803e3d6000fd5b505050506040513d601f19601f82011682018060405250810190610bc99190611b10565b6040516323b872dd60e01b81529091506001600160a01b038316906323b872dd90610bfc90339087908690600401611c1f565b602060405180830381600087803b158015610c1657600080fd5b505af1158015610c2a573d6000803e3d6000fd5b505050506040513d601f19601f82011682018060405250810190610c4e9190611aa4565b50600086815260056020526040902080546001600160a01b0319166001600160a01b038916179055835115610cd65760008681526006602090815260409091208551610c9c928701906115fd565b50857f6bb7ff708619ba0610cba295a58592e0451dee2622938c8755667688daf3529b85604051610ccd9190611cd4565b60405180910390a25b600086815260046020908152604080832088905580519182019052908152610d039088908890889061113a565b50505050505050565b6005602052600090815260409020546001600160a01b031681565b6009546001600160a01b031681565b6001600160a01b03918216600090815260016020908152604080832093909416825291909152205460ff1690565b610d6c610e2b565b6001600160a01b0316856001600160a01b03161480610d925750610d9285610310610e2b565b610dae5760405162461bcd60e51b815260040161037d90611e3c565b61064b8585858585611242565b610dc3611006565b6001600160a01b038116610de95760405162461bcd60e51b815260040161037d90611d66565b610df281611045565b50565b6001600160e01b031981166301ffc9a760e01b14919050565b6000908152600560205260409020546001600160a01b0316151590565b3390565b8151835114610e505760405162461bcd60e51b815260040161037d90612010565b6001600160a01b038416610e765760405162461bcd60e51b815260040161037d90611e8a565b6000610e80610e2b565b9050610e908187878787876109ff565b60005b8451811015610f92576000858281518110610ebe57634e487b7160e01b600052603260045260246000fd5b602002602001015190506000858381518110610eea57634e487b7160e01b600052603260045260246000fd5b602090810291909101810151600084815280835260408082206001600160a01b038e168352909352919091205490915081811015610f3a5760405162461bcd60e51b815260040161037d90611ecf565b6000838152602081815260408083206001600160a01b038e8116855292528083208585039055908b16825281208054849290610f77908490612128565b9250508190555050505080610f8b906121a8565b9050610e93565b50846001600160a01b0316866001600160a01b0316826001600160a01b03167f4a39dc06d4c0dbc64b70af90fd698a233a518aa5d07e595d983b8c0526c8f7fb8787604051610fe2929190611c9b565b60405180910390a4610ff88187878787876109ff565b6109ff81878787878761139f565b61100e610e2b565b6001600160a01b031661101f610786565b6001600160a01b0316146107845760405162461bcd60e51b815260040161037d90611f19565b600380546001600160a01b038381166001600160a01b0319831681179093556040519116919082907f8be0079c531659141344cd1fd0a4f28419497f9722a3daafe3b4186f6b6457e090600090a35050565b816001600160a01b0316836001600160a01b031614156110c95760405162461bcd60e51b815260040161037d90611f4e565b6001600160a01b0383811660008181526001602090815260408083209487168084529490915290819020805460ff1916851515179055517f17307eab39ab6107e8899845ad3d59bd9653f200f220920489ca2b5937696c319061112d908590611cc9565b60405180910390a3505050565b6001600160a01b0384166111605760405162461bcd60e51b815260040161037d90612058565b600061116a610e2b565b90506000611177856114c4565b90506000611184856114c4565b9050611195836000898585896109ff565b6000868152602081815260408083206001600160a01b038b168452909152812080548792906111c5908490612128565b92505081905550866001600160a01b031660006001600160a01b0316846001600160a01b03167fc3d58168c5ae7397731d063d5bbf3d657854427343f4c083240f7aacaa2d0f62898960405161121c9291906120f6565b60405180910390a4611233836000898585896109ff565b610d038360008989898961151d565b6001600160a01b0384166112685760405162461bcd60e51b815260040161037d90611e8a565b6000611272610e2b565b9050600061127f856114c4565b9050600061128c856114c4565b905061129c8389898585896109ff565b6000868152602081815260408083206001600160a01b038c168452909152902054858110156112dd5760405162461bcd60e51b815260040161037d90611ecf565b6000878152602081815260408083206001600160a01b038d8116855292528083208985039055908a1682528120805488929061131a908490612128565b92505081905550876001600160a01b0316896001600160a01b0316856001600160a01b03167fc3d58168c5ae7397731d063d5bbf3d657854427343f4c083240f7aacaa2d0f628a8a6040516113709291906120f6565b60405180910390a4611386848a8a86868a6109ff565b611394848a8a8a8a8a61151d565b505050505050505050565b6113b1846001600160a01b03166115ee565b156109ff5760405163bc197c8160e01b81526001600160a01b0385169063bc197c81906113ea9089908990889088908890600401611bc1565b602060405180830381600087803b15801561140457600080fd5b505af1925050508015611434575060408051601f3d908101601f1916820190925261143191810190611adc565b60015b611494576114406121ef565b806308c379a0141561147a5750611455612206565b80611460575061147c565b8060405162461bcd60e51b815260040161037d9190611cd4565b505b60405162461bcd60e51b815260040161037d90612099565b6001600160e01b0319811663bc197c8160e01b14610d035760405162461bcd60e51b815260040161037d90611d1e565b6040805160018082528183019092526060916000919060208083019080368337019050509050828160008151811061150c57634e487b7160e01b600052603260045260246000fd5b602090810291909101015292915050565b61152f846001600160a01b03166115ee565b156109ff5760405163f23a6e6160e01b81526001600160a01b0385169063f23a6e61906115689089908990889088908890600401611c43565b602060405180830381600087803b15801561158257600080fd5b505af19250505080156115b2575060408051601f3d908101601f191682019092526115af91810190611adc565b60015b6115be576114406121ef565b6001600160e01b0319811663f23a6e6160e01b14610d035760405162461bcd60e51b815260040161037d90611d1e565b6001600160a01b03163b151590565b82805461160990612140565b90600052602060002090601f01602090048101928261162b5760008555611671565b82601f1061164457805160ff1916838001178555611671565b82800160010185558215611671579182015b82811115611671578251825591602001919060010190611656565b5061167d929150611681565b5090565b5b8082111561167d5760008155600101611682565b600067ffffffffffffffff8311156116b0576116b06121d9565b6040516116c7601f8501601f19166020018261217b565b8091508381528484840111156116dc57600080fd5b83836020830137600060208583010152509392505050565b600082601f830112611704578081fd5b8135602061171182612104565b60405161171e828261217b565b83815282810191508583018385028701840188101561173b578586fd5b855b858110156117595781358452928401929084019060010161173d565b5090979650505050505050565b600082601f830112611776578081fd5b61178583833560208501611696565b9392505050565b60006020828403121561179d578081fd5b813561178581612298565b6000602082840312156117b9578081fd5b815161178581612298565b600080604083850312156117d6578081fd5b82356117e181612298565b915060208301356117f181612298565b809150509250929050565b600080600080600060a08688031215611813578081fd5b853561181e81612298565b9450602086013561182e81612298565b9350604086013567ffffffffffffffff8082111561184a578283fd5b61185689838a016116f4565b9450606088013591508082111561186b578283fd5b61187789838a016116f4565b9350608088013591508082111561188c578283fd5b5061189988828901611766565b9150509295509295909350565b600080600080600060a086880312156118bd578081fd5b85356118c881612298565b945060208601356118d881612298565b93506040860135925060608601359150608086013567ffffffffffffffff811115611901578182fd5b61189988828901611766565b6000806040838503121561191f578182fd5b823561192a81612298565b915060208301356117f1816122ad565b6000806040838503121561194c578182fd5b823561195781612298565b946020939093013593505050565b6000806000806080858703121561197a578182fd5b843561198581612298565b93506020850135925060408501359150606085013567ffffffffffffffff8111156119ae578182fd5b8501601f810187136119be578182fd5b6119cd87823560208401611696565b91505092959194509250565b600080604083850312156119eb578182fd5b823567ffffffffffffffff80821115611a02578384fd5b818501915085601f830112611a15578384fd5b81356020611a2282612104565b604051611a2f828261217b565b8381528281019150858301838502870184018b1015611a4c578889fd5b8896505b84871015611a77578035611a6381612298565b835260019690960195918301918301611a50565b5096505086013592505080821115611a8d578283fd5b50611a9a858286016116f4565b9150509250929050565b600060208284031215611ab5578081fd5b8151611785816122ad565b600060208284031215611ad1578081fd5b8135611785816122bb565b600060208284031215611aed578081fd5b8151611785816122bb565b600060208284031215611b09578081fd5b5035919050565b600060208284031215611b21578081fd5b5051919050565b6000815180845260208085019450808401835b83811015611b5757815187529582019590820190600101611b3b565b509495945050505050565b60008151808452815b81811015611b8757602081850181015186830182015201611b6b565b81811115611b985782602083870101525b50601f01601f19169290920160200192915050565b6001600160a01b0391909116815260200190565b6001600160a01b0386811682528516602082015260a060408201819052600090611bed90830186611b28565b8281036060840152611bff8186611b28565b90508281036080840152611c138185611b62565b98975050505050505050565b6001600160a01b039384168152919092166020820152604081019190915260600190565b6001600160a01b03868116825285166020820152604081018490526060810183905260a060808201819052600090611c7d90830184611b62565b979650505050505050565b6000602082526117856020830184611b28565b600060408252611cae6040830185611b28565b8281036020840152611cc08185611b28565b95945050505050565b901515815260200190565b6000602082526117856020830184611b62565b60208082526018908201527f746f6b656e205f696420616c7265616479206578697374730000000000000000604082015260600190565b60208082526028908201527f455243313135353a204552433131353552656365697665722072656a656374656040820152676420746f6b656e7360c01b606082015260800190565b60208082526026908201527f4f776e61626c653a206e6577206f776e657220697320746865207a65726f206160408201526564647265737360d01b606082015260800190565b60208082526026908201527f4d756c7469436f6c6c656374696f6e237572693a204e4f4e4558495354454e546040820152652faa27a5a2a760d11b606082015260800190565b6020808252602a908201527f455243313135353a2061646472657373207a65726f206973206e6f742061207660408201526930b634b21037bbb732b960b11b606082015260800190565b6020808252602e908201527f455243313135353a2063616c6c6572206973206e6f7420746f6b656e206f776e60408201526d195c881bdc88185c1c1c9bdd995960921b606082015260800190565b60208082526025908201527f455243313135353a207472616e7366657220746f20746865207a65726f206164604082015264647265737360d81b606082015260800190565b6020808252602a908201527f455243313135353a20696e73756666696369656e742062616c616e636520666f60408201526939103a3930b739b332b960b11b606082015260800190565b6020808252818101527f4f776e61626c653a2063616c6c6572206973206e6f7420746865206f776e6572604082015260600190565b60208082526029908201527f455243313135353a2073657474696e6720617070726f76616c20737461747573604082015268103337b91039b2b63360b91b606082015260800190565b60208082526029908201527f455243313135353a206163636f756e747320616e6420696473206c656e677468604082015268040dad2e6dac2e8c6d60bb1b606082015260800190565b602080825260169082015275131858dac813d9881155120811995948105b5bdd5b9d60521b604082015260600190565b60208082526028908201527f455243313135353a2069647320616e6420616d6f756e7473206c656e677468206040820152670dad2e6dac2e8c6d60c31b606082015260800190565b60208082526021908201527f455243313135353a206d696e7420746f20746865207a65726f206164647265736040820152607360f81b606082015260800190565b60208082526034908201527f455243313135353a207472616e7366657220746f206e6f6e2d455243313135356040820152732932b1b2b4bb32b91034b6b83632b6b2b73a32b960611b606082015260800190565b90815260200190565b918252602082015260400190565b600067ffffffffffffffff82111561211e5761211e6121d9565b5060209081020190565b6000821982111561213b5761213b6121c3565b500190565b60028104600182168061215457607f821691505b6020821081141561217557634e487b7160e01b600052602260045260246000fd5b50919050565b601f8201601f1916810167ffffffffffffffff811182821017156121a1576121a16121d9565b6040525050565b60006000198214156121bc576121bc6121c3565b5060010190565b634e487b7160e01b600052601160045260246000fd5b634e487b7160e01b600052604160045260246000fd5b600060033d111561079357600481823e5160e01c90565b600060443d101561221657610793565b6040516003193d81016004833e81513d67ffffffffffffffff8160248401118184111715612248575050505050610793565b828501915081518181111561226257505050505050610793565b843d870101602082850101111561227e57505050505050610793565b61228d6020828601018761217b565b509094505050505090565b6001600160a01b0381168114610df257600080fd5b8015158114610df257600080fd5b6001600160e01b031981168114610df257600080fdfea264697066735822122040cb38e651e558b96f58a4bbee628a009f577c9ce556037a27b0188c1f7395bb64736f6c63430008010033",
  "linkReferences": {},
  "deployedLinkReferences": {}
}